CLMLFR RRDC OECGROUP  1903290200001
1TCKU209799201903282200W  GLOGATS  CA883735000L      2019032902RRDCUP    COLUMBUS OH353100000                                 6001 USLAX USCMH 2*APLUTTWE008975      *APLU
1TRLU723630201903290130A  DIT      TX667285000LILXDI22019032902RRDCUP    DIT      TX667285000DIT      TX667285000V  20190329046006 USDAL USDAL 9*APLULMY0113229      *APLU
1TCLU150610201903282200W  GLOGATS  CA883735000L      2019032902RRDCUP    COLUMBUS OH353100000                                 6001 USLAX USCMH 0*APLUXHMN030289      *APLU
1TCNU177254201903290111A  LONGVIEW TX665450000LILXMNX2019032902RRDCUP    MARION   AR605153000MARION   AR605153000V  20190330106006 USZLV USMQM 0*APLUAFZ0128240      *APLU
1TCNU436569201903290111A  LONGVIEW TX665450000LILXMNX2019032902RRDCUP    MARION   AR605153000MARION   AR605153000V  20190330106006 USZLV USMQM 8*CMDUCQWY004227      *CMDU
1TCNU549148201903290111A  LONGVIEW TX665450000LILXMNX2019032902RRDCUP    MARION   AR605153000MARION   AR605153000V  20190330106006 USZLV USMQM 0*CMDUCQWY004227      *CMDU
1TCNU835531201903290111A  LONGVIEW TX665450000LILXMNX2019032902RRDCUP    MARION   AR605153000MARION   AR605153000V  20190330106006 USZLV USMQM 6*APLUAFZ0128240      *APLU
1SMCU102195201903290111A  LONGVIEW TX665450000LILXMNX2019032902RRDCUP    MARION   AR605153000MARION   AR605153000V  20190330106006 USZLV USMQM 0*SMLMSZP9A2543400    *SMLM
1SMCU114213201903290111A  LONGVIEW TX665450000LILXMNX2019032902RRDCUP    MARION   AR605153000MARION   AR605153000V  20190330106006 USZLV USMQM 0*SMLMSZP9A2543400    *SMLM
1SMCU114872201903290111A  LONGVIEW TX665450000LILXMNX2019032902RRDCUP    MARION   AR605153000MARION   AR605153000V  20190330106006 USZLV USMQM 9*SMLMSZP9A2543400    *SMLM
1SMCU113868201903290111A  LONGVIEW TX665450000LILXMNX2019032902RRDCUP    MARION   AR605153000MARION   AR605153000V  20190330106006 USZLV USMQM 0*SMLMSZP9A2543400    *SMLM
1SMCU124711201903290111A  LONGVIEW TX665450000LILXMNX2019032902RRDCUP    MARION   AR605153000MARION   AR605153000V  20190330106006 USZLV USMQM 0*SMLMSZP9A2543400    *SMLM
1SMLU314329201903290111A  LONGVIEW TX665450000LILXMNX2019032902RRDCUP    MARION   AR605153000MARION   AR605153000V  20190330106006 USZLV USMQM 7*CMDUQDWE113351      *CMDU
EOM00000013
